:020000000528D1
:100008001E2803015101023093007E01B801CE0180
:100018004001FB309200FF3094007E013F30CF005A
:1000280040010C117E013E30D4004E0116164001ED
:100038008B170B178E18332821218E183328103070
:10004800A6001130A5000030A7008A208E1C2328A6
:100058001030A6000030A500FF30A7008A200E1936
:10006800482821210E1948281030A6001030A50074
:100078000030A7008A200E1D38281030A600003056
:10008800A500FF30A7008A208E195D2821218E192E
:100098005D281030A6000D30A5000030A7008A208A
:1000A8008E1D4D281030A6000030A500FF30A70097
:1000B8008A200E1A722821210E1A72281030A600E2
:1000C8002130A5000030A7008A200E1E62281030BB
:1000D800A6000030A500FF30A7008A208E1A8728C6
:1000E80021218E1A87281030A6002030A500003064
:1000F800A7008A208E1E77281030A6000030A500A1
:10010800FF30A7008A20630000001E28A60DA60D58
:10011800A60DA50DA50DD320D320271CEC2027184C
:10012800D320A60D031CEC200318D320A60D031C16
:10013800EC200318D320A60D031CEC200318D320B1
:10014800A60D031CEC200318D320A60D031CEC20DD
:100158000318D320A50D031CEC200318D320A50DEC
:10016800031CEC200318D320A50D031CEC20031856
:10017800D320A50D031CEC200318D320A50D031CC8
:10018800EC200318D320A50D031CEC200318D32062
:100198000C115930A4001821A40BCF2808000C1109
:1001A800FF30A300A30BD6282730A300A30BDA281F
:1001B800DD282030A4000C15E128E228E3280C11E2
:1001C8000530A300A30BE6280000A40BDF280800D5
:1001D8002030A4000C15F028F128F2280C11053065
:1001E800A300A30BF5280000A40BEE28FB280C1194
:1001F800FF30A300A30BFE282730A300A30B02297E
:10020800080010214001A2011930A100A20B0A29FF
:10021800A10B0A2914210800F1000808F0000800C1
:100228007008880071080800FF30A300A30B1A2982
:100238004C30A300A30B1E290800102140010330F5
:0A024800A300A30B252914210800D0
:020000040001F9
:0A000E00CF3F213FFF3FFF3FFF3FC0
:00000001FF
